{
  "_format": "hh-sol-artifact-1",
  "contractName": "EpicNFT",
  "sourceName": "contracts/EpicNft.sol",
  "abi": [
    {
      "inputs": [],
      "stateMutability": "nonpayable",
      "type": "constructor"
    },
    {
      "anonymous": false,
      "inputs": [
        {
          "indexed": true,
          "internalType": "address",
          "name": "owner",
          "type": "address"
        },
        {
          "indexed": true,
          "internalType": "address",
          "name": "approved",
          "type": "address"
        },
        {
          "indexed": true,
          "internalType": "uint256",
          "name": "tokenId",
          "type": "uint256"
        }
      ],
      "name": "Approval",
      "type": "event"
    },
    {
      "anonymous": false,
      "inputs": [
        {
          "indexed": true,
          "internalType": "address",
          "name": "owner",
          "type": "address"
        },
        {
          "indexed": true,
          "internalType": "address",
          "name": "operator",
          "type": "address"
        },
        {
          "indexed": false,
          "internalType": "bool",
          "name": "approved",
          "type": "bool"
        }
      ],
      "name": "ApprovalForAll",
      "type": "event"
    },
    {
      "anonymous": false,
      "inputs": [
        {
          "indexed": false,
          "internalType": "address",
          "name": "sender",
          "type": "address"
        },
        {
          "indexed": false,
          "internalType": "uint256",
          "name": "tokenId",
          "type": "uint256"
        }
      ],
      "name": "NewEpicNFTMinted",
      "type": "event"
    },
    {
      "anonymous": false,
      "inputs": [
        {
          "indexed": true,
          "internalType": "address",
          "name": "from",
          "type": "address"
        },
        {
          "indexed": true,
          "internalType": "address",
          "name": "to",
          "type": "address"
        },
        {
          "indexed": true,
          "internalType": "uint256",
          "name": "tokenId",
          "type": "uint256"
        }
      ],
      "name": "Transfer",
      "type": "event"
    },
    {
      "inputs": [
        {
          "internalType": "address",
          "name": "to",
          "type": "address"
        },
        {
          "internalType": "uint256",
          "name": "tokenId",
          "type": "uint256"
        }
      ],
      "name": "approve",
      "outputs": [],
      "stateMutability": "nonpayable",
      "type": "function"
    },
    {
      "inputs": [
        {
          "internalType": "address",
          "name": "owner",
          "type": "address"
        }
      ],
      "name": "balanceOf",
      "outputs": [
        {
          "internalType": "uint256",
          "name": "",
          "type": "uint256"
        }
      ],
      "stateMutability": "view",
      "type": "function"
    },
    {
      "inputs": [
        {
          "internalType": "uint256",
          "name": "tokenId",
          "type": "uint256"
        }
      ],
      "name": "getApproved",
      "outputs": [
        {
          "internalType": "address",
          "name": "",
          "type": "address"
        }
      ],
      "stateMutability": "view",
      "type": "function"
    },
    {
      "inputs": [],
      "name": "getCurrentNFTCount",
      "outputs": [
        {
          "internalType": "uint256",
          "name": "",
          "type": "uint256"
        }
      ],
      "stateMutability": "view",
      "type": "function"
    },
    {
      "inputs": [
        {
          "internalType": "address",
          "name": "owner",
          "type": "address"
        },
        {
          "internalType": "address",
          "name": "operator",
          "type": "address"
        }
      ],
      "name": "isApprovedForAll",
      "outputs": [
        {
          "internalType": "bool",
          "name": "",
          "type": "bool"
        }
      ],
      "stateMutability": "view",
      "type": "function"
    },
    {
      "inputs": [],
      "name": "makeAnEpicNFT",
      "outputs": [],
      "stateMutability": "nonpayable",
      "type": "function"
    },
    {
      "inputs": [],
      "name": "name",
      "outputs": [
        {
          "internalType": "string",
          "name": "",
          "type": "string"
        }
      ],
      "stateMutability": "view",
      "type": "function"
    },
    {
      "inputs": [
        {
          "internalType": "uint256",
          "name": "tokenId",
          "type": "uint256"
        }
      ],
      "name": "ownerOf",
      "outputs": [
        {
          "internalType": "address",
          "name": "",
          "type": "address"
        }
      ],
      "stateMutability": "view",
      "type": "function"
    },
    {
      "inputs": [
        {
          "internalType": "uint256",
          "name": "tokenId",
          "type": "uint256"
        }
      ],
      "name": "pickRandomColor",
      "outputs": [
        {
          "internalType": "string",
          "name": "",
          "type": "string"
        }
      ],
      "stateMutability": "view",
      "type": "function"
    },
    {
      "inputs": [
        {
          "internalType": "string",
          "name": "word_position",
          "type": "string"
        },
        {
          "internalType": "uint256",
          "name": "tokenId",
          "type": "uint256"
        }
      ],
      "name": "pickRandomWord",
      "outputs": [
        {
          "internalType": "string",
          "name": "",
          "type": "string"
        }
      ],
      "stateMutability": "view",
      "type": "function"
    },
    {
      "inputs": [
        {
          "internalType": "address",
          "name": "from",
          "type": "address"
        },
        {
          "internalType": "address",
          "name": "to",
          "type": "address"
        },
        {
          "internalType": "uint256",
          "name": "tokenId",
          "type": "uint256"
        }
      ],
      "name": "safeTransferFrom",
      "outputs": [],
      "stateMutability": "nonpayable",
      "type": "function"
    },
    {
      "inputs": [
        {
          "internalType": "address",
          "name": "from",
          "type": "address"
        },
        {
          "internalType": "address",
          "name": "to",
          "type": "address"
        },
        {
          "internalType": "uint256",
          "name": "tokenId",
          "type": "uint256"
        },
        {
          "internalType": "bytes",
          "name": "_data",
          "type": "bytes"
        }
      ],
      "name": "safeTransferFrom",
      "outputs": [],
      "stateMutability": "nonpayable",
      "type": "function"
    },
    {
      "inputs": [
        {
          "internalType": "address",
          "name": "operator",
          "type": "address"
        },
        {
          "internalType": "bool",
          "name": "approved",
          "type": "bool"
        }
      ],
      "name": "setApprovalForAll",
      "outputs": [],
      "stateMutability": "nonpayable",
      "type": "function"
    },
    {
      "inputs": [
        {
          "internalType": "bytes4",
          "name": "interfaceId",
          "type": "bytes4"
        }
      ],
      "name": "supportsInterface",
      "outputs": [
        {
          "internalType": "bool",
          "name": "",
          "type": "bool"
        }
      ],
      "stateMutability": "view",
      "type": "function"
    },
    {
      "inputs": [],
      "name": "symbol",
      "outputs": [
        {
          "internalType": "string",
          "name": "",
          "type": "string"
        }
      ],
      "stateMutability": "view",
      "type": "function"
    },
    {
      "inputs": [
        {
          "internalType": "uint256",
          "name": "tokenId",
          "type": "uint256"
        }
      ],
      "name": "tokenURI",
      "outputs": [
        {
          "internalType": "string",
          "name": "",
          "type": "string"
        }
      ],
      "stateMutability": "view",
      "type": "function"
    },
    {
      "inputs": [
        {
          "internalType": "address",
          "name": "from",
          "type": "address"
        },
        {
          "internalType": "address",
          "name": "to",
          "type": "address"
        },
        {
          "internalType": "uint256",
          "name": "tokenId",
          "type": "uint256"
        }
      ],
      "name": "transferFrom",
      "outputs": [],
      "stateMutability": "nonpayable",
      "type": "function"
    }
  ],
  "bytecode": "0x608060405260405180610100016040528060d381526020016200478460d3913960089080519060200190620000369291906200082c565b50604051806080016040528060568152602001620048576056913960099080519060200190620000689291906200082c565b506040518060c001604052806040518060400160405280600381526020017f53724b000000000000000000000000000000000000000000000000000000000081525081526020016040518060400160405280600681526020017f53616c6d616e000000000000000000000000000000000000000000000000000081525081526020016040518060400160405280600781526020017f4872697468696b0000000000000000000000000000000000000000000000000081525081526020016040518060400160405280600581526020017f566172756e00000000000000000000000000000000000000000000000000000081525081526020016040518060400160405280600781526020017f416d69746162680000000000000000000000000000000000000000000000000081525081526020016040518060400160405280600281526020017f5554000000000000000000000000000000000000000000000000000000000000815250815250600a906006620001e6929190620008bd565b506040518060c001604052806040518060400160405280600381526020017f456174000000000000000000000000000000000000000000000000000000000081525081526020016040518060400160405280600581526020017f536c65657000000000000000000000000000000000000000000000000000000081525081526020016040518060400160405280600581526020017f4d6172727900000000000000000000000000000000000000000000000000000081525081526020016040518060400160405280600481526020017f4c696b650000000000000000000000000000000000000000000000000000000081525081526020016040518060400160405280600681526020017f526f74617465000000000000000000000000000000000000000000000000000081525081526020016040518060400160405280600581526020017f4472696e6b000000000000000000000000000000000000000000000000000000815250815250600b90600662000364929190620008bd565b506040518060c001604052806040518060400160405280600581526020017f5572696e6500000000000000000000000000000000000000000000000000000081525081526020016040518060400160405280600681526020017f4b7574697961000000000000000000000000000000000000000000000000000081525081526020016040518060400160405280600581526020017f536172646900000000000000000000000000000000000000000000000000000081525081526020016040518060400160405280600681526020017f54616b697961000000000000000000000000000000000000000000000000000081525081526020016040518060400160405280600581526020017f506f74747900000000000000000000000000000000000000000000000000000081525081526020016040518060400160405280600681526020017f5061706974610000000000000000000000000000000000000000000000000000815250815250600c906006620004e2929190620008bd565b506040518060c001604052806040518060400160405280600381526020017f726564000000000000000000000000000000000000000000000000000000000081525081526020016040518060400160405280600781526020017f233038433241380000000000000000000000000000000000000000000000000081525081526020016040518060400160405280600581526020017f626c61636b00000000000000000000000000000000000000000000000000000081525081526020016040518060400160405280600681526020017f79656c6c6f77000000000000000000000000000000000000000000000000000081525081526020016040518060400160405280600481526020017f626c75650000000000000000000000000000000000000000000000000000000081525081526020016040518060400160405280600581526020017f677265656e000000000000000000000000000000000000000000000000000000815250815250600d90600662000660929190620008bd565b503480156200066e57600080fd5b506040518060400160405280600981526020017f5371756172654e465400000000000000000000000000000000000000000000008152506040518060400160405280600681526020017f53515541524500000000000000000000000000000000000000000000000000008152508160009080519060200190620006f39291906200082c565b5080600190805190602001906200070c9291906200082c565b5050506200075a6040518060400160405280601e81526020017f54686973206973206d79204e465420636f6e74726163742e20576f61682100008152506200076060201b620012e11760201c565b62000ade565b6200080081604051602401620007779190620009f2565b6040516020818303038152906040527f41304fac000000000000000000000000000000000000000000000000000000007bffffffffffffffffffffffffffffffffffffffffffffffffffffffff19166020820180517bffffffffffffffffffffffffffffffffffffffffffffffffffffffff83818316178352505050506200080360201b60201c565b50565b60008151905060006a636f6e736f6c652e6c6f679050602083016000808483855afa5050505050565b8280546200083a9062000a68565b90600052602060002090601f0160209004810192826200085e5760008555620008aa565b82601f106200087957805160ff1916838001178555620008aa565b82800160010185558215620008aa579182015b82811115620008a95782518255916020019190600101906200088c565b5b509050620008b9919062000924565b5090565b82805482825590600052602060002090810192821562000911579160200282015b8281111562000910578251829080519060200190620008ff9291906200082c565b5091602001919060010190620008de565b5b50905062000920919062000943565b5090565b5b808211156200093f57600081600090555060010162000925565b5090565b5b808211156200096757600081816200095d91906200096b565b5060010162000944565b5090565b508054620009799062000a68565b6000825580601f106200098d5750620009ae565b601f016020900490600052602060002090810190620009ad919062000924565b5b50565b6000620009be8262000a16565b620009ca818562000a21565b9350620009dc81856020860162000a32565b620009e78162000acd565b840191505092915050565b6000602082019050818103600083015262000a0e8184620009b1565b905092915050565b600081519050919050565b600082825260208201905092915050565b60005b8381101562000a5257808201518184015260208101905062000a35565b8381111562000a62576000848401525b50505050565b6000600282049050600182168062000a8157607f821691505b6020821081141562000a985762000a9762000a9e565b5b50919050565b7f4e487b7100000000000000000000000000000000000000000000000000000000600052602260045260246000fd5b6000601f19601f8301169050919050565b613c968062000aee6000396000f3fe608060405234801561001057600080fd5b506004361061010b5760003560e01c80636352211e116100a2578063b88d4fde11610071578063b88d4fde146102ca578063c87b56dd146102e6578063de9d132f14610316578063e985e9c514610320578063f3cfcff1146103505761010b565b80636352211e1461023057806370a082311461026057806395d89b4114610290578063a22cb465146102ae5761010b565b806323b872dd116100de57806323b872dd146101aa57806342842e0e146101c6578063514dc8c6146101e25780635c705982146102125761010b565b806301ffc9a71461011057806306fdde0314610140578063081812fc1461015e578063095ea7b31461018e575b600080fd5b61012a60048036038101906101259190612775565b610380565b6040516101379190612e86565b60405180910390f35b610148610462565b6040516101559190612ea1565b60405180910390f35b6101786004803603810190610173919061281b565b6104f4565b6040516101859190612df6565b60405180910390f35b6101a860048036038101906101a39190612739565b610579565b005b6101c460048036038101906101bf9190612633565b610691565b005b6101e060048036038101906101db9190612633565b6106f1565b005b6101fc60048036038101906101f7919061281b565b610711565b6040516102099190612ea1565b60405180910390f35b61021a61082f565b6040516102279190613121565b60405180910390f35b61024a6004803603810190610245919061281b565b610840565b6040516102579190612df6565b60405180910390f35b61027a600480360381019061027591906125ce565b6108f2565b6040516102879190613121565b60405180910390f35b6102986109aa565b6040516102a59190612ea1565b60405180910390f35b6102c860048036038101906102c391906126fd565b610a3c565b005b6102e460048036038101906102df9190612682565b610a52565b005b61030060048036038101906102fb919061281b565b610ab4565b60405161030d9190612ea1565b60405180910390f35b61031e610c06565b005b61033a600480360381019061033591906125f7565b610ee5565b6040516103479190612e86565b60405180910390f35b61036a600480360381019061036591906127c7565b610f79565b6040516103779190612ea1565b60405180910390f35b60007f80ac58cd000000000000000000000000000000000000000000000000000000007bffffffffffffffffffffffffffffffffffffffffffffffffffffffff1916827bffffffffffffffffffffffffffffffffffffffffffffffffffffffff1916148061044b57507f5b5e139f000000000000000000000000000000000000000000000000000000007bffffffffffffffffffffffffffffffffffffffffffffffffffffffff1916827bffffffffffffffffffffffffffffffffffffffffffffffffffffffff1916145b8061045b575061045a8261137a565b5b9050919050565b606060008054610471906133e6565b80601f016020809104026020016040519081016040528092919081815260200182805461049d906133e6565b80156104ea5780601f106104bf576101008083540402835291602001916104ea565b820191906000526020600020905b8154815290600101906020018083116104cd57829003601f168201915b5050505050905090565b60006104ff826113e4565b61053e576040517f08c379a0000000000000000000000000000000000000000000000000000000008152600401610535906130a1565b60405180910390fd5b6004600083815260200190815260200160002060009054906101000a900473ffffffffffffffffffffffffffffffffffffffff169050919050565b600061058482610840565b90508073ffffffffffffffffffffffffffffffffffffffff168373ffffffffffffffffffffffffffffffffffffffff1614156105f5576040517f08c379a00000000000000000000000000000000000000000000000000000000081526004016105ec906130e1565b60405180910390fd5b8073ffffffffffffffffffffffffffffffffffffffff16610614611450565b73ffffffffffffffffffffffffffffffffffffffff16148061064357506106428161063d611450565b610ee5565b5b610682576040517f08c379a000000000000000000000000000000000000000000000000000000000815260040161067990612fc1565b60405180910390fd5b61068c8383611458565b505050565b6106a261069c611450565b82611511565b6106e1576040517f08c379a00000000000000000000000000000000000000000000000000000000081526004016106d890613101565b60405180910390fd5b6106ec8383836115ef565b505050565b61070c83838360405180602001604052806000815250610a52565b505050565b6060600061074561072184611856565b6040516020016107319190612dd4565b604051602081830303815290604052611a03565b9050600d80549050816107589190613492565b9050600d8181548110610794577f4e487b7100000000000000000000000000000000000000000000000000000000600052603260045260246000fd5b9060005260206000200180546107a9906133e6565b80601f01602080910402602001604051908101604052809291908181526020018280546107d5906133e6565b80156108225780601f106107f757610100808354040283529160200191610822565b820191906000526020600020905b81548152906001019060200180831161080557829003601f168201915b5050505050915050919050565b600061083b6007611a36565b905090565b6000806002600084815260200190815260200160002060009054906101000a900473ffffffffffffffffffffffffffffffffffffffff169050600073ffffffffffffffffffffffffffffffffffffffff168173ffffffffffffffffffffffffffffffffffffffff1614156108e9576040517f08c379a00000000000000000000000000000000000000000000000000000000081526004016108e090613001565b60405180910390fd5b80915050919050565b60008073ffffffffffffffffffffffffffffffffffffffff168273ffffffffffffffffffffffffffffffffffffffff161415610963576040517f08c379a000000000000000000000000000000000000000000000000000000000815260040161095a90612fe1565b60405180910390fd5b600360008373ffffffffffffffffffffffffffffffffffffffff1673ffffffffffffffffffffffffffffffffffffffff168152602001908152602001600020549050919050565b6060600180546109b9906133e6565b80601f01602080910402602001604051908101604052809291908181526020018280546109e5906133e6565b8015610a325780601f10610a0757610100808354040283529160200191610a32565b820191906000526020600020905b815481529060010190602001808311610a1557829003601f168201915b5050505050905090565b610a4e610a47611450565b8383611a44565b5050565b610a63610a5d611450565b83611511565b610aa2576040517f08c379a0000000000000000000000000000000000000000000000000000000008152600401610a9990613101565b60405180910390fd5b610aae84848484611bb1565b50505050565b6060610abf826113e4565b610afe576040517f08c379a0000000000000000000000000000000000000000000000000000000008152600401610af590613081565b60405180910390fd5b6000600660008481526020019081526020016000208054610b1e906133e6565b80601f0160208091040260200160405190810160405280929190818152602001828054610b4a906133e6565b8015610b975780601f10610b6c57610100808354040283529160200191610b97565b820191906000526020600020905b815481529060010190602001808311610b7a57829003601f168201915b505050505090506000610ba8611c0d565b9050600081511415610bbe578192505050610c01565b600082511115610bf3578082604051602001610bdb929190612ccf565b60405160208183030381529060405292505050610c01565b610bfc84611c24565b925050505b919050565b6000610c126007611a36565b905060328110610c57576040517f08c379a0000000000000000000000000000000000000000000000000000000008152600401610c4e90613041565b60405180910390fd5b6000610c986040518060400160405280600581526020017f666972737400000000000000000000000000000000000000000000000000000081525083610f79565b90506000610cdb6040518060400160405280600681526020017f7365636f6e64000000000000000000000000000000000000000000000000000081525084610f79565b90506000610d1e6040518060400160405280600581526020017f746869726400000000000000000000000000000000000000000000000000000081525085610f79565b90506000838383604051602001610d3793929190612cf3565b60405160208183030381529060405290506000610d5386610711565b90506000600882600985604051602001610d709493929190612d24565b60405160208183030381529060405290506000610db584610d9084611ccb565b604051602001610da1929190612d6d565b604051602081830303815290604052611ccb565b9050600081604051602001610dca9190612db2565b6040516020818303038152906040529050610e196040518060400160405280601581526020017f0a2d2d2d2d2d2d2d2d2d2d2d2d2d2d2d2d2d2d2d2d00000000000000000000008152506112e1565b610e22816112e1565b610e606040518060400160405280601581526020017f2d2d2d2d2d2d2d2d2d2d2d2d2d2d2d2d2d2d2d2d0a00000000000000000000008152506112e1565b610e6a338a611e89565b610e748982611ea7565b610e7e6007611f1b565b610ea1604051806060016040528060258152602001613bfc602591398a33611f31565b7febb98688741ffa4c7589bf325de30cf7becb63de567842e1ccdb6cb949fdc82c338a604051610ed2929190612e5d565b60405180910390a1505050505050505050565b6000600560008473ffffffffffffffffffffffffffffffffffffffff1673ffffffffffffffffffffffffffffffffffffffff16815260200190815260200160002060008373ffffffffffffffffffffffffffffffffffffffff1673ffffffffffffffffffffffffffffffffffffffff16815260200190815260200160002060009054906101000a900460ff16905092915050565b60606000610faf84610f8a85611856565b604051602001610f9b929190612ccf565b604051602081830303815290604052611a03565b9050600a8054905081610fc29190613492565b90507f692e3fbb06193c3a65b6ccb60c9ec6fb32af21c16d3f6ac10039258c2a5d4d2d84604051602001610ff69190612cb8565b6040516020818303038152906040528051906020012014156110e757600a818154811061104c577f4e487b7100000000000000000000000000000000000000000000000000000000600052603260045260246000fd5b906000526020600020018054611061906133e6565b80601f016020809104026020016040519081016040528092919081815260200182805461108d906133e6565b80156110da5780601f106110af576101008083540402835291602001916110da565b820191906000526020600020905b8154815290600101906020018083116110bd57829003601f168201915b50505050509150506112db565b7f45318970bfff215a328f56895f3a97d4f276a44c24c135c12c37867a1f667b8a846040516020016111199190612cb8565b60405160208183030381529060405280519060200120141561120a57600b818154811061116f577f4e487b7100000000000000000000000000000000000000000000000000000000600052603260045260246000fd5b906000526020600020018054611184906133e6565b80601f01602080910402602001604051908101604052809291908181526020018280546111b0906133e6565b80156111fd5780601f106111d2576101008083540402835291602001916111fd565b820191906000526020600020905b8154815290600101906020018083116111e057829003601f168201915b50505050509150506112db565b600c8181548110611244577f4e487b7100000000000000000000000000000000000000000000000000000000600052603260045260246000fd5b906000526020600020018054611259906133e6565b80601f0160208091040260200160405190810160405280929190818152602001828054611285906133e6565b80156112d25780601f106112a7576101008083540402835291602001916112d2565b820191906000526020600020905b8154815290600101906020018083116112b557829003601f168201915b50505050509150505b92915050565b611377816040516024016112f59190612ea1565b6040516020818303038152906040527f41304fac000000000000000000000000000000000000000000000000000000007bffffffffffffffffffffffffffffffffffffffffffffffffffffffff19166020820180517bffffffffffffffffffffffffffffffffffffffffffffffffffffffff8381831617835250505050611fd0565b50565b60007f01ffc9a7000000000000000000000000000000000000000000000000000000007bffffffffffffffffffffffffffffffffffffffffffffffffffffffff1916827bffffffffffffffffffffffffffffffffffffffffffffffffffffffff1916149050919050565b60008073ffffffffffffffffffffffffffffffffffffffff166002600084815260200190815260200160002060009054906101000a900473ffffffffffffffffffffffffffffffffffffffff1673ffffffffffffffffffffffffffffffffffffffff1614159050919050565b600033905090565b816004600083815260200190815260200160002060006101000a81548173ffffffffffffffffffffffffffffffffffffffff021916908373ffffffffffffffffffffffffffffffffffffffff160217905550808273ffffffffffffffffffffffffffffffffffffffff166114cb83610840565b73ffffffffffffffffffffffffffffffffffffffff167f8c5be1e5ebec7d5bd14f71427d1e84f3dd0314c0f7b2291e5b200ac8c7c3b92560405160405180910390a45050565b600061151c826113e4565b61155b576040517f08c379a000000000000000000000000000000000000000000000000000000000815260040161155290612fa1565b60405180910390fd5b600061156683610840565b90508073ffffffffffffffffffffffffffffffffffffffff168473ffffffffffffffffffffffffffffffffffffffff1614806115d557508373ffffffffffffffffffffffffffffffffffffffff166115bd846104f4565b73ffffffffffffffffffffffffffffffffffffffff16145b806115e657506115e58185610ee5565b5b91505092915050565b8273ffffffffffffffffffffffffffffffffffffffff1661160f82610840565b73ffffffffffffffffffffffffffffffffffffffff1614611665576040517f08c379a000000000000000000000000000000000000000000000000000000000815260040161165c90612f21565b60405180910390fd5b600073ffffffffffffffffffffffffffffffffffffffff168273ffffffffffffffffffffffffffffffffffffffff1614156116d5576040517f08c379a00000000000000000000000000000000000000000000000000000000081526004016116cc90612f61565b60405180910390fd5b6116e0838383611ff9565b6116eb600082611458565b6001600360008573ffffffffffffffffffffffffffffffffffffffff1673ffffffffffffffffffffffffffffffffffffffff168152602001908152602001600020600082825461173b91906132fc565b925050819055506001600360008473ffffffffffffffffffffffffffffffffffffffff1673ffffffffffffffffffffffffffffffffffffffff1681526020019081526020016000206000828254611792919061321b565b92505081905550816002600083815260200190815260200160002060006101000a81548173ffffffffffffffffffffffffffffffffffffffff021916908373ffffffffffffffffffffffffffffffffffffffff160217905550808273ffffffffffffffffffffffffffffffffffffffff168473ffffffffffffffffffffffffffffffffffffffff167fddf252ad1be2c89b69c2b068fc378daa952ba7f163c4a11628f55a4df523b3ef60405160405180910390a4611851838383611ffe565b505050565b6060600082141561189e576040518060400160405280600181526020017f300000000000000000000000000000000000000000000000000000000000000081525090506119fe565b600082905060005b600082146118d05780806118b990613449565b915050600a826118c99190613271565b91506118a6565b60008167ffffffffffffffff811115611912577f4e487b7100000000000000000000000000000000000000000000000000000000600052604160045260246000fd5b6040519080825280601f01601f1916602001820160405280156119445781602001600182028036833780820191505090505b5090505b600085146119f75760018261195d91906132fc565b9150600a8561196c9190613492565b6030611978919061321b565b60f81b8183815181106119b4577f4e487b7100000000000000000000000000000000000000000000000000000000600052603260045260246000fd5b60200101907effffffffffffffffffffffffffffffffffffffffffffffffffffffffffffff1916908160001a905350600a856119f09190613271565b9450611948565b8093505050505b919050565b600081604051602001611a169190612cb8565b6040516020818303038152906040528051906020012060001c9050919050565b600081600001549050919050565b8173ffffffffffffffffffffffffffffffffffffffff168373ffffffffffffffffffffffffffffffffffffffff161415611ab3576040517f08c379a0000000000000000000000000000000000000000000000000000000008152600401611aaa90612f81565b60405180910390fd5b80600560008573ffffffffffffffffffffffffffffffffffffffff1673ffffffffffffffffffffffffffffffffffffffff16815260200190815260200160002060008473ffffffffffffffffffffffffffffffffffffffff1673ffffffffffffffffffffffffffffffffffffffff16815260200190815260200160002060006101000a81548160ff0219169083151502179055508173ffffffffffffffffffffffffffffffffffffffff168373ffffffffffffffffffffffffffffffffffffffff167f17307eab39ab6107e8899845ad3d59bd9653f200f220920489ca2b5937696c3183604051611ba49190612e86565b60405180910390a3505050565b611bbc8484846115ef565b611bc884848484612003565b611c07576040517f08c379a0000000000000000000000000000000000000000000000000000000008152600401611bfe90612f01565b60405180910390fd5b50505050565b606060405180602001604052806000815250905090565b6060611c2f826113e4565b611c6e576040517f08c379a0000000000000000000000000000000000000000000000000000000008152600401611c65906130c1565b60405180910390fd5b6000611c78611c0d565b90506000815111611c985760405180602001604052806000815250611cc3565b80611ca284611856565b604051602001611cb3929190612ccf565b6040516020818303038152906040525b915050919050565b60606000825190506000811415611cf45760405180602001604052806000815250915050611e84565b60006003600283611d05919061321b565b611d0f9190613271565b6004611d1b91906132a2565b90506000602082611d2c919061321b565b67ffffffffffffffff811115611d6b577f4e487b7100000000000000000000000000000000000000000000000000000000600052604160045260246000fd5b6040519080825280601f01601f191660200182016040528015611d9d5781602001600182028036833780820191505090505b5090506000604051806060016040528060408152602001613c21604091399050600181016020830160005b86811015611e415760038101905062ffffff818a015116603f8160121c168401518060081b905060ff603f83600c1c1686015116810190508060081b905060ff603f8360061c1686015116810190508060081b905060ff603f831686015116810190508060e01b90508084526004840193505050611dc8565b506003860660018114611e5b5760028114611e6b57611e76565b613d3d60f01b6002830352611e76565b603d60f81b60018303525b508484525050819450505050505b919050565b611ea382826040518060200160405280600081525061219a565b5050565b611eb0826113e4565b611eef576040517f08c379a0000000000000000000000000000000000000000000000000000000008152600401611ee690613021565b60405180910390fd5b80600660008481526020019081526020016000209080519060200190611f169291906123f2565b505050565b6001816000016000828254019250508190555050565b611fcb838383604051602401611f4993929190612ec3565b6040516020818303038152906040527fe3849f79000000000000000000000000000000000000000000000000000000007bffffffffffffffffffffffffffffffffffffffffffffffffffffffff19166020820180517bffffffffffffffffffffffffffffffffffffffffffffffffffffffff8381831617835250505050611fd0565b505050565b60008151905060006a636f6e736f6c652e6c6f679050602083016000808483855afa5050505050565b505050565b505050565b60006120248473ffffffffffffffffffffffffffffffffffffffff166121f5565b1561218d578373ffffffffffffffffffffffffffffffffffffffff1663150b7a0261204d611450565b8786866040518563ffffffff1660e01b815260040161206f9493929190612e11565b602060405180830381600087803b15801561208957600080fd5b505af19250505080156120ba57506040513d601f19601f820116820180604052508101906120b7919061279e565b60015b61213d573d80600081146120ea576040519150601f19603f3d011682016040523d82523d6000602084013e6120ef565b606091505b50600081511415612135576040517f08c379a000000000000000000000000000000000000000000000000000000000815260040161212c90612f01565b60405180910390fd5b805181602001fd5b63150b7a0260e01b7bffffffffffffffffffffffffffffffffffffffffffffffffffffffff1916817bffffffffffffffffffffffffffffffffffffffffffffffffffffffff191614915050612192565b600190505b949350505050565b6121a48383612218565b6121b16000848484612003565b6121f0576040517f08c379a00000000000000000000000000000000000000000000000000000000081526004016121e790612f01565b60405180910390fd5b505050565b6000808273ffffffffffffffffffffffffffffffffffffffff163b119050919050565b600073ffffffffffffffffffffffffffffffffffffffff168273ffffffffffffffffffffffffffffffffffffffff161415612288576040517f08c379a000000000000000000000000000000000000000000000000000000000815260040161227f90613061565b60405180910390fd5b612291816113e4565b156122d1576040517f08c379a00000000000000000000000000000000000000000000000000000000081526004016122c890612f41565b60405180910390fd5b6122dd60008383611ff9565b6001600360008473ffffffffffffffffffffffffffffffffffffffff1673ffffffffffffffffffffffffffffffffffffffff168152602001908152602001600020600082825461232d919061321b565b92505081905550816002600083815260200190815260200160002060006101000a81548173ffffffffffffffffffffffffffffffffffffffff021916908373ffffffffffffffffffffffffffffffffffffffff160217905550808273ffffffffffffffffffffffffffffffffffffffff16600073ffffffffffffffffffffffffffffffffffffffff167fddf252ad1be2c89b69c2b068fc378daa952ba7f163c4a11628f55a4df523b3ef60405160405180910390a46123ee60008383611ffe565b5050565b8280546123fe906133e6565b90600052602060002090601f0160209004810192826124205760008555612467565b82601f1061243957805160ff1916838001178555612467565b82800160010185558215612467579182015b8281111561246657825182559160200191906001019061244b565b5b5090506124749190612478565b5090565b5b80821115612491576000816000905550600101612479565b5090565b60006124a86124a384613161565b61313c565b9050828152602081018484840111156124c057600080fd5b6124cb8482856133a4565b509392505050565b60006124e66124e184613192565b61313c565b9050828152602081018484840111156124fe57600080fd5b6125098482856133a4565b509392505050565b60008135905061252081613b9f565b92915050565b60008135905061253581613bb6565b92915050565b60008135905061254a81613bcd565b92915050565b60008151905061255f81613bcd565b92915050565b600082601f83011261257657600080fd5b8135612586848260208601612495565b91505092915050565b600082601f8301126125a057600080fd5b81356125b08482602086016124d3565b91505092915050565b6000813590506125c881613be4565b92915050565b6000602082840312156125e057600080fd5b60006125ee84828501612511565b91505092915050565b6000806040838503121561260a57600080fd5b600061261885828601612511565b925050602061262985828601612511565b9150509250929050565b60008060006060848603121561264857600080fd5b600061265686828701612511565b935050602061266786828701612511565b9250506040612678868287016125b9565b9150509250925092565b6000806000806080858703121561269857600080fd5b60006126a687828801612511565b94505060206126b787828801612511565b93505060406126c8878288016125b9565b925050606085013567ffffffffffffffff8111156126e557600080fd5b6126f187828801612565565b91505092959194509250565b6000806040838503121561271057600080fd5b600061271e85828601612511565b925050602061272f85828601612526565b9150509250929050565b6000806040838503121561274c57600080fd5b600061275a85828601612511565b925050602061276b858286016125b9565b9150509250929050565b60006020828403121561278757600080fd5b60006127958482850161253b565b91505092915050565b6000602082840312156127b057600080fd5b60006127be84828501612550565b91505092915050565b600080604083850312156127da57600080fd5b600083013567ffffffffffffffff8111156127f457600080fd5b6128008582860161258f565b9250506020612811858286016125b9565b9150509250929050565b60006020828403121561282d57600080fd5b600061283b848285016125b9565b91505092915050565b61284d81613330565b82525050565b61285c81613342565b82525050565b600061286d826131d8565b61287781856131ee565b93506128878185602086016133b3565b6128908161357f565b840191505092915050565b60006128a6826131e3565b6128b081856131ff565b93506128c08185602086016133b3565b6128c98161357f565b840191505092915050565b60006128df826131e3565b6128e98185613210565b93506128f98185602086016133b3565b80840191505092915050565b60008154612912816133e6565b61291c8186613210565b9450600182166000811461293757600181146129485761297b565b60ff1983168652818601935061297b565b612951856131c3565b60005b8381101561297357815481890152600182019150602081019050612954565b838801955050505b50505092915050565b6000612991607c83613210565b915061299c82613590565b607c82019050919050565b60006129b46032836131ff565b91506129bf8261362b565b604082019050919050565b60006129d76025836131ff565b91506129e28261367a565b604082019050919050565b60006129fa601c836131ff565b9150612a05826136c9565b602082019050919050565b6000612a1d6024836131ff565b9150612a28826136f2565b604082019050919050565b6000612a406019836131ff565b9150612a4b82613741565b602082019050919050565b6000612a63602c836131ff565b9150612a6e8261376a565b604082019050919050565b6000612a86600d83613210565b9150612a91826137b9565b600d82019050919050565b6000612aa96038836131ff565b9150612ab4826137e2565b604082019050919050565b6000612acc602a836131ff565b9150612ad782613831565b604082019050919050565b6000612aef6029836131ff565b9150612afa82613880565b604082019050919050565b6000612b12602e836131ff565b9150612b1d826138cf565b604082019050919050565b6000612b35600283613210565b9150612b408261391e565b600282019050919050565b6000612b586013836131ff565b9150612b6382613947565b602082019050919050565b6000612b7b6020836131ff565b9150612b8682613970565b602082019050919050565b6000612b9e6031836131ff565b9150612ba982613999565b604082019050919050565b6000612bc1602c836131ff565b9150612bcc826139e8565b604082019050919050565b6000612be4602f836131ff565b9150612bef82613a37565b604082019050919050565b6000612c07600a83613210565b9150612c1282613a86565b600a82019050919050565b6000612c2a6021836131ff565b9150612c3582613aaf565b604082019050919050565b6000612c4d601d83613210565b9150612c5882613afe565b601d82019050919050565b6000612c706031836131ff565b9150612c7b82613b27565b604082019050919050565b6000612c93600583613210565b9150612c9e82613b76565b600582019050919050565b612cb28161339a565b82525050565b6000612cc482846128d4565b915081905092915050565b6000612cdb82856128d4565b9150612ce782846128d4565b91508190509392505050565b6000612cff82866128d4565b9150612d0b82856128d4565b9150612d1782846128d4565b9150819050949350505050565b6000612d308287612905565b9150612d3c82866128d4565b9150612d488285612905565b9150612d5482846128d4565b9150612d5f82612a79565b915081905095945050505050565b6000612d7882612bfa565b9150612d8482856128d4565b9150612d8f82612984565b9150612d9b82846128d4565b9150612da682612b28565b91508190509392505050565b6000612dbd82612c40565b9150612dc982846128d4565b915081905092915050565b6000612ddf82612c86565b9150612deb82846128d4565b915081905092915050565b6000602082019050612e0b6000830184612844565b92915050565b6000608082019050612e266000830187612844565b612e336020830186612844565b612e406040830185612ca9565b8181036060830152612e528184612862565b905095945050505050565b6000604082019050612e726000830185612844565b612e7f6020830184612ca9565b9392505050565b6000602082019050612e9b6000830184612853565b92915050565b60006020820190508181036000830152612ebb818461289b565b905092915050565b60006060820190508181036000830152612edd818661289b565b9050612eec6020830185612ca9565b612ef96040830184612844565b949350505050565b60006020820190508181036000830152612f1a816129a7565b9050919050565b60006020820190508181036000830152612f3a816129ca565b9050919050565b60006020820190508181036000830152612f5a816129ed565b9050919050565b60006020820190508181036000830152612f7a81612a10565b9050919050565b60006020820190508181036000830152612f9a81612a33565b9050919050565b60006020820190508181036000830152612fba81612a56565b9050919050565b60006020820190508181036000830152612fda81612a9c565b9050919050565b60006020820190508181036000830152612ffa81612abf565b9050919050565b6000602082019050818103600083015261301a81612ae2565b9050919050565b6000602082019050818103600083015261303a81612b05565b9050919050565b6000602082019050818103600083015261305a81612b4b565b9050919050565b6000602082019050818103600083015261307a81612b6e565b9050919050565b6000602082019050818103600083015261309a81612b91565b9050919050565b600060208201905081810360008301526130ba81612bb4565b9050919050565b600060208201905081810360008301526130da81612bd7565b9050919050565b600060208201905081810360008301526130fa81612c1d565b9050919050565b6000602082019050818103600083015261311a81612c63565b9050919050565b60006020820190506131366000830184612ca9565b92915050565b6000613146613157565b90506131528282613418565b919050565b6000604051905090565b600067ffffffffffffffff82111561317c5761317b613550565b5b6131858261357f565b9050602081019050919050565b600067ffffffffffffffff8211156131ad576131ac613550565b5b6131b68261357f565b9050602081019050919050565b60008190508160005260206000209050919050565b600081519050919050565b600081519050919050565b600082825260208201905092915050565b600082825260208201905092915050565b600081905092915050565b60006132268261339a565b91506132318361339a565b9250827fffffffffffffffffffffffffffffffffffffffffffffffffffffffffffffffff03821115613266576132656134c3565b5b828201905092915050565b600061327c8261339a565b91506132878361339a565b925082613297576132966134f2565b5b828204905092915050565b60006132ad8261339a565b91506132b88361339a565b9250817fffffffffffffffffffffffffffffffffffffffffffffffffffffffffffffffff04831182151516156132f1576132f06134c3565b5b828202905092915050565b60006133078261339a565b91506133128361339a565b925082821015613325576133246134c3565b5b828203905092915050565b600061333b8261337a565b9050919050565b60008115159050919050565b60007fffffffff0000000000000000000000000000000000000000000000000000000082169050919050565b600073ffffffffffffffffffffffffffffffffffffffff82169050919050565b6000819050919050565b82818337600083830152505050565b60005b838110156133d15780820151818401526020810190506133b6565b838111156133e0576000848401525b50505050565b600060028204905060018216806133fe57607f821691505b6020821081141561341257613411613521565b5b50919050565b6134218261357f565b810181811067ffffffffffffffff821117156134405761343f613550565b5b80604052505050565b60006134548261339a565b91507fffffffffffffffffffffffffffffffffffffffffffffffffffffffffffffffff821415613487576134866134c3565b5b600182019050919050565b600061349d8261339a565b91506134a88361339a565b9250826134b8576134b76134f2565b5b828206905092915050565b7f4e487b7100000000000000000000000000000000000000000000000000000000600052601160045260246000fd5b7f4e487b7100000000000000000000000000000000000000000000000000000000600052601260045260246000fd5b7f4e487b7100000000000000000000000000000000000000000000000000000000600052602260045260246000fd5b7f4e487b7100000000000000000000000000000000000000000000000000000000600052604160045260246000fd5b6000601f19601f8301169050919050565b7f222c20226465736372697074696f6e223a20224120686967686c79206163636c60008201527f61696d656420636f6c6c656374696f6e206f6620626f6c6c79206163746f727360208201527f2077697468207374756666207468657920646f2121222c2022696d616765223a60408201527f2022646174613a696d6167652f7376672b786d6c3b6261736536342c00000000606082015250565b7f4552433732313a207472616e7366657220746f206e6f6e20455243373231526560008201527f63656976657220696d706c656d656e7465720000000000000000000000000000602082015250565b7f4552433732313a207472616e736665722066726f6d20696e636f72726563742060008201527f6f776e6572000000000000000000000000000000000000000000000000000000602082015250565b7f4552433732313a20746f6b656e20616c7265616479206d696e74656400000000600082015250565b7f4552433732313a207472616e7366657220746f20746865207a65726f2061646460008201527f7265737300000000000000000000000000000000000000000000000000000000602082015250565b7f4552433732313a20617070726f766520746f2063616c6c657200000000000000600082015250565b7f4552433732313a206f70657261746f7220717565727920666f72206e6f6e657860008201527f697374656e7420746f6b656e0000000000000000000000000000000000000000602082015250565b7f3c2f746578743e3c2f7376673e00000000000000000000000000000000000000600082015250565b7f4552433732313a20617070726f76652063616c6c6572206973206e6f74206f7760008201527f6e6572206e6f7220617070726f76656420666f7220616c6c0000000000000000602082015250565b7f4552433732313a2062616c616e636520717565727920666f7220746865207a6560008201527f726f206164647265737300000000000000000000000000000000000000000000602082015250565b7f4552433732313a206f776e657220717565727920666f72206e6f6e657869737460008201527f656e7420746f6b656e0000000000000000000000000000000000000000000000602082015250565b7f45524337323155524953746f726167653a2055524920736574206f66206e6f6e60008201527f6578697374656e7420746f6b656e000000000000000000000000000000000000602082015250565b7f227d000000000000000000000000000000000000000000000000000000000000600082015250565b7f4d6178206974656d732063616e20626520353000000000000000000000000000600082015250565b7f4552433732313a206d696e7420746f20746865207a65726f2061646472657373600082015250565b7f45524337323155524953746f726167653a2055524920717565727920666f722060008201527f6e6f6e6578697374656e7420746f6b656e000000000000000000000000000000602082015250565b7f4552433732313a20617070726f76656420717565727920666f72206e6f6e657860008201527f697374656e7420746f6b656e0000000000000000000000000000000000000000602082015250565b7f4552433732314d657461646174613a2055524920717565727920666f72206e6f60008201527f6e6578697374656e7420746f6b656e0000000000000000000000000000000000602082015250565b7f7b226e616d65223a202200000000000000000000000000000000000000000000600082015250565b7f4552433732313a20617070726f76616c20746f2063757272656e74206f776e6560008201527f7200000000000000000000000000000000000000000000000000000000000000602082015250565b7f646174613a6170706c69636174696f6e2f6a736f6e3b6261736536342c000000600082015250565b7f4552433732313a207472616e736665722063616c6c6572206973206e6f74206f60008201527f776e6572206e6f7220617070726f766564000000000000000000000000000000602082015250565b7f434f4c4f52000000000000000000000000000000000000000000000000000000600082015250565b613ba881613330565b8114613bb357600080fd5b50565b613bbf81613342565b8114613bca57600080fd5b50565b613bd68161334e565b8114613be157600080fd5b50565b613bed8161339a565b8114613bf857600080fd5b5056fe416e204e465420772f20494420257320686173206265656e206d696e74656420746f2025734142434445464748494a4b4c4d4e4f505152535455565758595a6162636465666768696a6b6c6d6e6f707172737475767778797a303132333435363738392b2fa2646970667358221220477d91bcf4430b9243da6b830a67e0f55267342b98d46ea0878f616320c8c90164736f6c634300080400333c73766720786d6c6e733d27687474703a2f2f7777772e77332e6f72672f323030302f73766727207072657365727665417370656374526174696f3d27784d696e594d696e206d656574272076696577426f783d273020302033353020333530273e3c7374796c653e2e62617365207b2066696c6c3a2077686974653b20666f6e742d66616d696c793a2073657269663b20666f6e742d73697a653a20323470783b207d3c2f7374796c653e3c726563742077696474683d273130302527206865696768743d2731303025272066696c6c3d27272f3e3c7465787420783d273530252720793d273530252720636c6173733d27626173652720646f6d696e616e742d626173656c696e653d276d6964646c652720746578742d616e63686f723d276d6964646c65273e",
  "linkReferences": {},
  "deployedLinkReferences": {}
}